:400000000040002011000000390A0000390A000008B500F02BFDC04608B51222224B1A60302001F047FA214A214B1A60BC229201204B1A60204B2149196021490A60214961
:40004000196021490A60214A1A6088218901204A1160204A1A60E82149011F4A11601F4A1A60822212061E4B1A608022D2021D4B1A6044221C4B1A60013A1C4B1A60013AB7
:400080001B4B1A60013A1B4B1A60013A1A4B1A6007201A4901F04AF9072001F021F90022174B1A6008BDC046300010400600008004010B40100301400000014044FF0080C4
:4000C0000C03014043FF00800803014042FF00800403014041FF00800003014040FF008008010B4000010B40300101402C0101402801014014010140080101402D17000008
:400100000C020B4010B572B6002410E03C4863001A195200821891881B195B001A5AC31858880004104300F009FD0134E4B2012CECD93349081C0C30283100F0E5FC314AFD
:40014000314B1A60EE22314B1A60553A304B1A60304A314B1A60AA221204304B1A6099231B042F4A13602F4A13602F4A1360802252022E4B1A6002222D4B1A602D492E4B2B
:4001800019602E4B18780221014319702C4C21783C20814328380143217018781621014319704021274B19702749284B1960802327490B6027490B60713B27490B602749CB
:4001C0000B603221264B19602649274B1960F0210901264B19600321254B19602131254B19602549254B1960254B1A603121254B1960254B1A60FFF70FFF00F0B5FC10BDD8
:400200003861000002EE00000003024000040240000702400400990000500F4004500F4010500F4020500F4030500F4038500F403C500F401EEE0E002001204000700F4039
:4002400001700F4058300F404E020000080004400001044018010440000204401802044000030440B32D0100080304400C0304400004044008040440B60D0000080504408F
:4002800000070440080704401807044010B5064C2378002B07D1054B002B02D0044800E000BF0123237010BD5001002000000000D05F000008B5084B002B03D0074808497E
:4002C00000E000BF07480368002B00D108BD064B002BFBD09847F9E700000000D05F000054010020C80000200000000008B562B600F002F8002008BD30B587B000F07AF830
:4003000000F052F800F0C0FA00F0E8F800F0A8F800F0E0F900F0BEFA00F0ECF800F0AAF800F0DEF900F048F81A4C201C00F0F8F80023E05E00F088FA00F0B0F800F0A8F82E
:40034000606000F09FF880B22081134D134B0093402301930022A35E0293636803930490281C802149000E4A0E4B05F01FFA281C01F02EFA606800F0DDF80823E05E00F03E
:40038000E5F800F017F900F0F7FA00F019F800F0F9F8C9E76C0100206C020020D85F0000E45F00002460000008B500F08DFA014B186008BD7801002008B500F0A9F808BD6B
:4003C00010B500F0A5F8041C00F07EFA084B1B68C01AFA23DB00984202D9002000F088F9E30702D500F07CF901E000F087F910BD7801002008B5034800218022520005F046
:40040000CCF908BD6C020020074A13789B00DBB24000081803210140194311700F200140024B58567047C0467C0100204060000010B500F0C1FE83070ED000F0B5FE0124F5
:40044000044000F0B1FE8107C90F201CFFF7DCFF024A5368C018506010BDC0467C010020034B00225A601A81DA601A617047C0467C01002008B5024800F0CAFE08BDC046CF
:4004800031040000014B188900B270477C010020014B58687047C0467C01002010B500F013FA0D4BDB68C01A322813D900F00CFA094CE06063682069181AFA239B005843CD
:4004C000322102F0ADFB4300C01843009BB223816368236110BDC0467C010020044B00221A605A609A60DA601A615A611A7670479001002008B5082000F06CFC00F0FAFBD8
:4005000019200621014A00F071FC08BD90010020024B187800025B781843704790010020034A93781B02D278134303807047C04690010020020E044B1A72020C5A72020AF1
:400540009A72D8727047C046900100200212024B1A7358737047C0469001002010B54000C0B2021C0E32034B0C0A9C540F30195410BDC046900100201630014B1954704781
:400580009001002008B500F09FF9084BDB69C01AFA239B00984208D900F096F9034BD86103490A78501C08709A7508BD90010020CC00002010B500F0C3FD022000F0CAFDEA
:4005C00000F082F9214B1B68C01A64283DD900F07BF91E4B1860002434E060B200F0CEFD80B21B4BC3189BB21A4A934208D9031C4822FF32904201D2174B1B8898B200E073
:40060000164804F057FF0022154B04F03FF90022144B04F03BF904F0DDFF04F087FF124A124B01F019F9124A124B04F02FF904F0D1FFE4B202F05EFCC1B2201CFFF79CFFFA
:400640000134E4B263B2032BC7DD10BDB001002035F8FFFF34F8000050600000CB070000000014400000303F666666666666F2BF5C8FC2F528DC3B40632806DC031C643038
:4006800001DA104B1B785BB200E06423002B05D09803C01A8000C01A80B200E0002003B2094A94466344094A934209DCC8229200934202DD604480B203E0C820800000E035
:4006C0000348704752600000DC050000970800009808000008B5012000F0EAFA08BDC04608B5002000F0E4FA00F0D2FA08BDC04608B5FFF7C1FF00F077FA08BD08B500F031
:4007000055FA012000F0D4FA08BDC046F0B58DB0061C0F1C081C424902F082FA00B203F007F90B90301C3E4902F07AFA00B203F0FFF8041C3B4D3C4B00933E23019302970F
:400740000B9F381C04F0F2FE049005910696201C04F0ECFE08900991281C80214900334A334B05F023F8281C01F032F8201C391C02F040FF051C4000400804F0D7FE2D4A42
:400780002D4B02F069FB002805D02C4C281C216802F0C8FB2060294C281C616802F02AFF071C281CA16802F0F3FD061CE068216802F0EEFD011C301C02F0B4FB061C381CB5
:4007C000216902F0E5FD011C301C02F0ABFB1C4902F0DEFD061C1B4902F078FB002809D00124301C164902F05DFB002800D10024E3B200E00123002B0CD0301C114902F00D
:4008000065FB002804D0301C03F072F8C0B202E09C2000E06420094B5D6040B20DB0F0BDDC0500006C0200205460000060600000A8600000FCA9F1D24D62503FB801002068
:400840000000C8420000C8C210B5041C00F03CF8084B5B69C01A32280BD900F035F8054B5861FFF70FFE011C201CFFF74FFFFFF73FFF10BDB8010020024A1368013313609E
:400880007047C046D00100200022014B1A607047D001002010B500F0CBFE094800F068FE00240AE0201C00F0DBFE002804D1201C044900F0CDFE02E00134042CF2D910BDA2
:4008C00080BB000079080000014B18687047C046D001002008B5FFF7F7FF084B5860074B9B78002B06D1FFF7EFFF044B5B68C01A0928F4D9014B9878C0B208BDD401002051
:4009000038B5051C8900064BCC580020A0470120A047281C00F00EFE0020A04738BDC046BC60000010B513490301CB185A890B889BB29A4201D20A8892B20E490301CB18B0
:400940005A811B890A8892B2934201D90B889BB2084A000111180C1C0B81118889B21018103000F059F8E0603A2102F0C9F880B210BDC046D401002030B587B000243CE042
:400980000022204B9A70201C00F074FC0A20211CFFF7B6FFFFF79EFF00282CD0201CFFF7C1FF011C201CFFF7D9FDFFF78DFF154B9B6CC01AFA239B0098421CD9FFF784FF61
:4009C000104A90642301D3181A1C188959890E4D0E4B103300939223019302900391D3680493281C80214900094A0A4B04F0DEFE281C00F0EDFE0134E4B2032CC0D907B007
:400A000030BDC046D40100206C020020BC600000E06000001C61000070B5051C43685C180668181C311C02F06BF8201A6860311C02F066F870BDC046FEE7C04608B5031C25
:400A4000084A1068C318084A9A1A802A02DC054A136005E004F06CFE0C2303600120404208BDC046D00000208803002070B50F4E0F4D13E029686B68AC68002202E001C98C
:400A800001C30432A242FAD1E868002202E0002102C304328242FAD11035013E002EE9D104F04CFEFFF722FCFEE7C046010000009C63000008B50F4A136801218B431360F1
:400AC00000230AE0032B03D89A000B49505800E00A4899000A4A885001332F2BF2D9FFF711FB0022074B1A60024A116801230B43136008BD0000104000000000390A000008
:400B000000000020C0000020F0B50025002711E0BB00C658F3B2FF22964308E06A008A181478A419527822700135013BDBB2002BF4D10137062FEBD9F0BDC04608B50A1C0C
:400B4000002104F02AFE08BD064B1B68002803D080221206134301E05B005B08014A13607047C04680033A4008B50323094A1360094A136080221205084B1A600F23084A04
:400B80001360084A13600022074B1A600120FFF7DBFF08BD300030403000314000003A4000033A4040033A40000E3F4008B500F07CFB044A136802218B43136000F079FB22
:400BC00008BDC046000020400004000C014B18607047C046480120400004000C014B18607047C046540120400004000C014B18607047C0464C01204038B5041C0D1C00F0E6
:400C000054FBAC40024B1C6000F053FB38BDC0460800204008B500F048FB064A116802230B43136000F045FB02201821FFF7E4FF08BDC04600002040014B18607047C04660
:400C40007801204010B50D4C8023DB042360236823600020FFF7B8FF236823600C22084B1A600120FFF7E8FF3122064B1A600648FFF7B2FF0548FFF7B7FF10BD400120401C
:400C80006401204068012040204E0000DC05000008B5064B1B78002B04D1FFF7D3FF0122024B1A70FFF7B6FF08BDC0462002002004490A68FD231A404000FB3B18401043E2
:400CC000086070470003044008B5082000F008FB08BDC04608B500F01DF808BD08B5044A1368802109060B431360FFF7EDFF08BD0000244008B5064B1B78002B04D1FFF7CB
:400D0000E9FF0122024B1A70FFF7E8FF08BDC0462402002010B50024194B1C60194A1A4B1A601A4B1A4A13601A4A14601A491B4A11601B4A13601B4B1C60082000F0DAFAE5
:400D40000820032100F004FB0820174900F0EEFA164B1C60164B1C605222FF32154B1A60154B1C60154B1C60154B1C60154B1C70154B1C70154B1C80154B00221A7010BD5E
:400D80000000244000080040600024400701008000032440040324401000FE001003244000022440040224401D0E0000C80E2440880E2440480F2440080F2440C80F244044
:400DC000880F244070030020740300206E0300206C030020044A1368FF218B4340000840184310607047C0461003244070B5061C0D1C141E0BD0082000F07CFA044B1C609A
:400E0000044B1E80044B1D80082000F069FA70BD780300207C0300207203002070B5A94B1B68002B00D09847A74B1C88A74B1D68A74B1E680223FF331D4235D0A54A136842
:400E40005B005B081360A44B1A7820218A431A70197810220A431A70A04B1B68DB060BD49F4B1A78984B1B889A420AD09A4A117808230B43137004E0974A117802230B437E
:400E80001370984A1168984B0B4013600023974A1360924A1360964A13708E4A1368802109060B43136009E1F30602D50022914B1A600A23334200D192E08F4B1B685B07F0
:400EC00058D58E4B1A688A4B1B78002B17D0012B49D18B4B1B88002B0DD00121894B1960894B1B681B19D2B21A700134844A1388013B13803AE00222824B1A6036E0834B4B
:400F00001B8893422BD901217E4B1960804B1B88934202D99B1A9BB200E0002378490B80072B03D80121724B197014E0082B09D16C490B68A020000203430B6000216B4B7A
:400F4000196008E067490B688020800103430B600821664B1960624B1A70141C06E00222684B1A6002E0002000F0CEF90422694B1A6035E05B4B1B689B0431D5B3070DD59E
:400F8000654B1B681F211940564A1068564B03401360012014E00821012011E0584B1988083989B219800829F5D8002008E0564B1B681B19514A1268D2B21A70013401395D
:400FC0000029F4D1002808D1464A1368802109020B4313600022454B1A600C224D4B1A60B3074AD5EB0615D50023404A13603B4A13603B4B1B78A34201D1022300E00A2350
:401000002B40354A11780B4320218B4313700022374B1A706B062ED52F4A117820230B4313702F4B1B781C1C3C4A1268D20612D5364A1288D31A324A1380394B1A688021E4
:4010400049020A431A601968364A0A401A601022224B1A6002E00422244B1A600122324B1A603249194B196031490868102303430B60244B1A60154B1D60154B1B685B0744
:401080001CD51F4B1B88002B0CD01F4B1B681B191B78DBB2274A13600134194A1388013B138002E0FF22234B1A60234B1B681F221340082BE5D10F3A204B1A60024B1C8094
:4010C00070BDC046280200206E030020400F2440000E24400000244074030020880F24406C03002060002440FF5FFFFFC80F244070030020880E2440CC0F2440400324406A
:401100002C0200206C002440780300207C03002072030020C00F2440080324406400244004022440FFFFFEFF800E2440FF0F0000480F24404002244008022440800F244031
:40114000034A1368802149020B4313607047C04604003A40021C83070CD0074B1B680120184001D19307F8D4002804D00122024B1A6000E00020704710023A4010B5041EA5
:40118000032C02D9002000F0BFF8032C07D8A400044B9C46644420680004000C00E0002000B210BD80013A40024B18688006800F7047C04604030440034A10683023184067
:4011C000106000097047C04610030440014BD8647047C0460000002010B5041C00F065F8044A13689B009B08A4071C43146000F060F810BD00E400E00822014B1A607047C6
:4012000000E100E00822014B1A60704780E100E010B5041CFFF7F6FF201CFFF7D7FF0320FFF7DAFFFFF7E8FF10BDC046031C04490868FE2202400120184010430860704762
:401240000005044004490A68FB231A408000F73B18401043086070470005044004490A68F7231A40C000EF3B184010430860704700050440014B18707047C04671000F40A8
:4012800004490A68FD231A404000FB3B1840104308607047000504400230800803D00138FDD1C046C046C0467047EFF3108072B6704780F310887047024A1168024B0B409F
:4012C0001360704700002240FFFFFFBF034B18688023DB05184000D001207047000022401F2318401E3B8340181C014B1860704700E100E01F2318401E3B8340181C014B97
:401300001860704780E100E001BE704738B5041C0D1C0F2802D90020FFF7F6FFA40080239B059C4664442068256038BD38B5041C0D1C1F2802D90020FFF7E6FFA400034BBC
:401340009C4664442068256038BDC0464000002070B5041C0E1E032E02D90020FFF7D4FF1F2C02D90020FFF7CFFF03252540ED000635FFF79AFFA408A400074B9C4664449B
:4013800023680322AA409343AE40351C1D432560FFF78FFF70BDC04600E400E010B5041C06E0084B1868FFF777FF074B9C46644480231B029C42F4D8024B58686043FFF728
:4013C0006BFF10BDD40000200080FFFF30B583B000F056F9002856D0FFF767FF041C00230AE02A4A11683F220A402949C95C8A4201D1033303E001332D2BF2D90323254A44
:401400001268D20606D1234802681F218A4313390A430260204A1168204A1140204A5A438020C00184466244D20B013A5205520D0A43A02149031143192B02D819490A43E7
:401440000BE0194A9A1812781148C3189B7DD218FF2A00D9FF2292050A430F4B1A60134D2B680193302000F0BFF9114A13688021C9050B4313601420FFF790FF019B2B606C
:40148000201CFFF716FF03B030BDC0462CFF0B40F061000034FF0B400800224000F800C040420F000000D43FCDF1FF0F300010400000224030B587B0041CFFF7F6FE051C3F
:4014C000FFF704FF002803D0FFF7F6FE012100E00021104B1B6800930F4B1B680193033C0E4B1B5D02930E4B1B68039304AA0D4B04936B4605930C4B1A600C480C4A106021
:401500001B68012901D1FFF761FF281CFFF7D1FE07B030BD08010B4000010B40F061000030001040B6EA000008001040170000800400104008B5034B1B7A5843FFF7ACFEFA
:4015400008BDC046D4000020024A116802230B431360704710E000E008B5FFF7F5FF034A116801230B43136008BDC04610E000E00002000A014B18607047C04614E000E02C
:40158000012805D1054A116804230B43136004E0024A136804218B431360704710E000E0024B1868C003C00F7047C04610E000E010B5FFF7F5FF01280BD107E0A300054A6B
:4015C0009B58002B00D09847013400E00024042CF4D910BD300200200022014B1A60704718E000E008B5002304E0990000200D4A88500133042BF8D90F200B49FFF786FE75
:401600000120FFF7BDFF094BD868FA21890001F077FAFFF7ADFFFFF7DFFF0F20FFF760FE08BDC04630020020B1150000D400002008B5064B5B69002B04D1FFF7D3FF0122B0
:40164000024B5A61FFF788FF08BDC04630020020024A8300985899507047C046300200208000014BC058704730020020034B1868C0231B02184000D00120704700010B400A
:40168000034B1B68002B01DA012000E0002070470000224008B5FFF708FE044A1368C02109020B431360FFF704FE08BD00010B4010B5FFF7FAFD08490A68084B1A4080241B
:4016C000E40122430A600A6813408022120213430B60FFF7EEFD10BD00010B40FF3FFFFF70B5061CFFF7E1FD041CFFF7BFFF002803D0FFF7DDFF012500E000250848331C3E
:401700000340084A106808490840184310601368012D01D1FFF7BEFF201CFFF7CAFD70BD0404040010020B40FBFBFBFF10B5244B1B685B0715D5234B1B685B070ED5224BE5
:401740009969042001401F4C22688A4322609A6982439A61DB68002B00D098470420FFF7BFFF174B1B685B0518D5164B1B685B0510D5154B99698022D200114011480268C1
:401780008A4302609969114A0A409A611B69002B00D098478020C000FFF7A2FF084B1B685B030CD5074B1B685B0304D5064B5B69002B00D098478020C002FFF791FF10BD3E
:4017C00010020B40E400002048020020FFFBFFFF38B5051C002402E000F030F80134285D0028F9D138BDC04638B5041CFFF75DFD051C102C05D8104A136803218B43136082
:4018000016E0202C07D80C490B6803229343023A13430B600CE0302C07D807490B6803229343013A13430B6002E00020FFF76CFD281CFFF73EFD38BD30001040044B1B68C9
:401840001F221340082BF9D0024B18607047C0460802274040022740F0B546465746C0B48FB01F1C02900391161C00F0A3F9041C0D1CC84B0094019598461B785BB2013364
:4018800005D0301C391C00F0DFFF002806D1009801990FB00CBC90469A46F0BD0298039900F0D2FF8246002831D1301C391C0022002301F0B7FA0028E9D001230493B64BBB
:4018C00004AD6B60534600222B62029B039CAB60EC60B24B2E616F61AA61EB6143461B785BB25A1C0ED0022B0CD0281C00F0DAFF002800D180E02B6A002B03D003F018FF55
:401900002B6A0360AB69EC6900930194BFE7029803990022002301F085FA002822D0301C391C0022002301F07DFA041E2CD001230493994B04AD6B6000232B62029B039C00
:40194000AB60EC6000230024AB61EC6143461B782E616F615BB2002BC7D000228F4BAA61EB61CFE7201C291C00F064FF8246002847D0201C291C0022002301F053FA002816
:4019800066D10094019582E7301C391C00F052FF002800D17BE7301C391C0022002301F047FA002800D172E7012304937A4B04AD6B602C62029B039CAB60EC6043461B787D
:4019C0002E616F61002B75D100230024AB61EC61281C00F067FF002872D02B6A002B91D08CE700200021021C0B1C02F011FBA861E961022C00D078E703F09AFE2123036079
:401A000079E70298039900F015FF0028B1D0301C391C00F00FFF0028ABD0291C201C00F013FF04AD002850D1012304935A4B28626B60029B039CAB60EC6043461C782E61B0
:401A40006F61002CCDD100230024AB61EC614CE70298039900F0EEFE00940195002800D115E7301C391C00F0E5FE00940195002800D10CE704230493474B04AD6B6000234F
:401A80002B62029B039CAB60EC6000230024AB61EC6143461B782E616F615BB2022B04D0281C00F0FFFE002897D103F041FE2223036092E700203A49A861E961022B87D14E
:401AC00003F036FE2123036087E703230493324B2E616F616B6053462B62029B039CAB60EC6043461B785BB2002B1CD102980399E0222C4B1206AA61EB610022002301F0F8
:401B000097F9002830D143461B785BB2022B05D0281C00F0C7FE002800D0ECE603F008FE22230360E7E60022029803991E4BAA61EB610022002301F07BF90028E3D00022D1
:401B40001A4B301C391C02F0A1FE061C0F1C00F0B1FE321C3B1C01F065F90028D3D100220F4BAA61EB61CEE70022104B301C391C02F08CFE061C0F1C00F09CFE321C3B1C84
:401B800001F050F90028BED1E022094B1206AA61EB61B8E7E8000020386200000000F03F0000F0FFFFFFEF470000F07F0000E03FFFFFEFC7F0B556464D4644465F46F0B4F3
:401BC0001C1C131C67008DB07F0800930194061C0D1C80468946A2463B4331D0614B6C0064089C4228DC25D09F4225DC5D4B9F4200D176E000239B464B46002B00DA74E009
:401C0000002A2CD1574B9F4200D18AE0564B9F425FD08023DB059A4501D100F0D1FB534B9A451CD14B46002B19DB301C291C00F007FD07E000280CD04D4BE01830430AD1B6
:401C4000002049490DB03CBC90469946A246AB46F0BDA742CADD474800F026FEF2E7301C291C00F0E3FD0B1C4146021C00291ED0E90F0139884659464046014366D03E494C
:401C80008F4200DC88E03D498F4201DC00F0E0FB3B4B9C4200DC82E35346002B00DC82E338483949021C0B1C02F0F0FDCAE7002C04D02D48A90089088142D9D151460029B3
:401CC00000DABBE34946002900DA6FE3101C191CB8E75346002B01DA00F020FC301C291CB0E7002A00D185E7A6E7284B9F422ADC234B9F4200DC83E725493815884201DC70
:401D000000F027FC234B00991B1AD940081C9840904200D074E70123194001335B1A9B466EE7134BE018064300D189E7144B9C4200DC75E35346002B00DA34E3009B019CA8
:401D4000181C211C7EE702239B4659E7301C291C321C2B1C03F034F8021C0B1C02F058F970E7C0460000F07F0000F03F0000E03F000010C0206000000000E0410000F043BC
:401D8000FFFFEF3F9C7500883CE4377EFFFF3F431304000033040000E94900208C4209DC101C191C0022E74B02F070FD021C35200C1C4042E44D2115AC4661448A46240390
:401DC000E24DE349240B824425438C4200DC3CE3E0498C4201DC00F021FC01218C46DE49E2448C46002400216544CB009946161C2F1CDA4B301C4B441A685B68291C069633
:401E000007970892099302F0DBFF089A099B061C0F1C0698079901F0D3FD021C0B1C0020CA4902F0F5F8021C0B1C301C391C0A920B9302F02BFD0A1C011C131C0491059241
:401E400000220292039380236D109B051D43802300201B03EB1819190D1C041C02980399221C2B1C02F012FD021C0B1C301C391C02F0A6FF089A099B061C0F1C201C291C4A
:401E800002F09EFF021C0B1C0698079902F098FF021C0B1C0298039902F0F8FC021C0B1C301C391C02F08CFF0A9A0B9B02F0EEFC049A059B06900791101C191C02F0E6FCFC
:401EC000041C0D1C221C2B1C02F0E0FCA44A061C0F1C201C291CA34B02F0D8FCA24AA34B01F06EFD221C2B1C02F0D0FCA04AA14B01F066FD221C2B1C02F0C8FC9E4A9F4B26
:401F000001F05EFD221C2B1C02F0C0FC9C4A9D4B01F056FD221C2B1C02F0B8FC9A4A9B4B01F04EFD021C0B1C301C391C02F0AEFC049A059B041C0D1C0298039901F040FD72
:401F4000069A079B02F0A2FC221C2B1C01F038FD029B039C061C0F1C1A1C181C211C231C02F094FC0A1C011C894B08910992111C002201F025FD321C3B1C01F021FD00246E
:401F80000D1C02980399221C2B1C02F07FFC221C2B1C029003910698079902F077FC0022069007917A4B201C291C02F009FF089A099B02F005FF021C0B1C301C391C02F0DE
:401FC000FFFE049A059B02F061FC021C0B1C0698079901F0F5FC061C0F1C02980399321C3B1C01F0EDFC0024E022201C1206694B0D1C02F04BFC684A06900791674B201C92
:40200000291C02F043FC029A039B04900591201C291C02F0D5FE021C0B1C301C391C02F0CFFE5F4A5B4B02F031FC021C0B1C0498059901F0C5FC5B4B4B441A685B6801F0D1
:40204000BFFC061C50460F1C03F034FA041C0D1C06980799544B4B441A685B6804920593321C3B1C01F0ACFC049A059B01F0A8FC221C2B1C01F0A4FC0020221C2B1C02901B
:40208000039102F09DFE049A059B02F099FE069A079B02F095FE021C0B1C301C391C02F08FFE049005915B464246013B134300D0B1E100233D4C06930794009B019C002687
:4020C000181C211C231C321C02F07AFE029A039B02F0DCFB049A059B0D1C271C041C0098019902F0D3FB021C0B1C201C291C01F067FC029A039B00900191301C391C02F0B0
:40210000C5FB041C0D1C009801992B1C221C01F057FC274B82468946994200DC58E1254B4B44034300D001E200980199224A234B01F046FC221C061C0F1C2B1C40E0C04673
:40214000FFFF0F000000404301FCFFFF0000F03F8E98030079B60B000000F0FF60620000EF4E454A287ECA3F65DBC9934A86CD3F01411DA96074D13F4D268F515555D53FA1
:40218000FFAB6FDBB66DDB3F033333333333E33F0000084009C7EE3FF5015B14E02F3EBEFD033ADC50620000406200000000F0BFFFFF8F40000070BFFE822B654715973CC1
:4021C0005046494602F0FCFD021C0B1C301C391C00F042FE4E46002800D0A7E1E74B3615F11880235B0398460B41191CE448494484464F007F0DBC446646E24800223041F8
:402200000E1C864340460903090B08434946331CCE0FDD49C91B0841011C704241408946201C291C02F0CCFD041C0D1C009801992B1CB144221C01F0C3FB4B461B0598461E
:4022400000200022D14B061C0F1C02F01FFB221C029003912B1C301C391C02F0B1FD021C0B1C0098019902F0ABFDC94AC94B02F00DFBC94A041C0D1C301C391CC74B02F088
:4022800005FB021C0B1C201C291C01F099FB041C0D1C02980399221C2B1C01F091FB029A039B061C0F1C02F08BFD021C0B1C201C291C02F085FD321C009001913B1C301C04
:4022C000391C02F0E3FA041C0D1CB54AB54B02F0DDFAB54AB54B02F073FD221C2B1C02F0D5FAB34AB34B01F06BFB221C2B1C02F0CDFAB14AB14B02F063FD221C2B1C02F0B2
:40230000C5FAAF4AAF4B01F05BFB221C2B1C02F0BDFA021C0B1C301C391C02F051FD041C0D1C221C2B1C301C391C02F0AFFA8023029003910022201C291CDB0502F040FDCB
:40234000021C0B1C0298039901F062FE009A019B041C0D1C301C391C02F098FA009A019B01F02EFB021C0B1C201C291C02F028FD321C3B1C02F024FD0B1C021C92490020C8
:4023800002F01EFD43465C182315002B00DC4FE1021C231C0698079902F078FA52E45346002B00DA7CE4002000214BE487498C46594664440C4300D0C4E0101C191CC9E447
:4023C000301C291C321C2B1C02F060FAFFF73AFC7F4B4E0076089E4200DC17E17D4B4B4403430CD1221C2B1C02F0EAFC021C0B1C0098019900F026FD002800D1EEE6069829
:402400000799754A754B02F041FA734A734B02F03DFAFFF717FC00236B4C069307944CE65346002BBFDA009B019C80221206181C9446231C6344191CFFF704FC002062492A
:4024400001F0E6FD021C0B1C3CE400240021CCE463498C42A3DD5C498C4201DDFFF71CFC101C191C0022584B02F0AAFCC0225D4BD205041C0D1C02F009FA5B4A061C0F1C86
:40248000201C291C594B02F001FA221C029003912B1C201C291C02F0F9F9002204900591534B201C291C02F0F1F9021C0B1C5148514902F085FC221C2B1C02F0E7F9021C53
:4024C0000B1C00204D4902F07BFC021C0B1C0498059902F0DBF94A4A424B02F0D7F9021C0B1C0298039902F06BFC041C0D1C221C2B1C301C391C01F063FA0022101C3B1C38
:40250000321C0290039102F05BFC021C0B1C201C291C02F055FC04900591C4E5321C2B1C0020294901F074FDFFF78CFB06980799344A354B02F0AAF9324A334B02F0A6F9A0
:40254000FFF780FB5946101C01296CD0191CFFF779FB002A01D0FFF782FB3A1C091A0A41131C8B40BB4201D0FFF750FB012313400222D31A9B46FFF749FBC04602FCFFFF3A
:4025800001FCFFFFFFFF0F0013040000432EE63FEF39FAFE422EE63F396CA80C615C20BED0A4BE726937663EF16BD2C541BDBB3E2CDE25AF6A56113F93BDBE166CC1663F07
:4025C0003E5555555555C53F0000F03F000010C0FFCB904000346F3F59F3F8C21F6EA501FEFFEF3F4715F73F44DF5DF80BAE543E0000D03F555555555555D53F0000E03F7C
:40260000FE822B659C7500883CE4377E0B4B9E4200DDE3E500239846994611E680240121E402FFF7E2FB802109065918FFF70AFB4A4600F0E1F9021C0B1CABE60000E03F80
:40264000F0B556464D4644465F46754BF0B40A1C0E1C191C83B0051C041C3140994200D1B7E0002E00DC93E0311500D1A0E06D4B1203CE188023120B5B031A43F30700D535
:4026800077E0731052009846E30FD318802216210027002564009203A818984202DC85181B1ABF18E00F5B0001391B18640052080029F1D10022019294468022120620200B
:4026C000924609E0AB4247D0E10F5B0001385B186400520800281ED0614689189D42F1DA8E18B446CE0FF607A94656452ED05B1B8C42AD416D425B1B641A01995B008B46BB
:402700009344594601380191E10F4D465B18640052080028E0D1234330D1019B5B0842497A108C466244F90702D5802109060B4341460E05B1181D1C0E1C281C311C03B0F9
:402740003CBC90469946A246AB46F0BD6646002ECDDB6E1CB146CAE7A14208D88E18B446CE0FF607564541D099460023C4E71D1CAAE7E30F5200D218640082E7019B013347
:402780003AD0019A01239446134063445B08C6E773005B080343D0D00021002E33D1E20A15396405002AFAD080235B031A4226D1802000234003520001330242FBD00125B1
:4027C0002020ED1AC01A4919251CC5409C402A434DE72A1C331C281C311C02F057F82A1C331C01F0EDF8051C0E1CA6E76646002EAFDA0023A9467FE7013700238FE72020FD
:4028000001250023DFE72A1C331C281C311C02F0D7FA021C0B1C01F0FBFB051C0E1C8CE70000F07F01FCFFFF0000E03F49004B08191C7047034B48009C4640086044C00F72
:402840007047C046000010800A1C031C024330B50220002A00D130BD80221206914216D00C4A04208C180C4A9442F4D90B4C0C199442F0D90A4A4900490803209142EAD946
:40288000064A00209142E6D158425841E3E7002BE1D0EFE70000F0FFFFFFDF7F0000F07FFFFF0F0000207047002001497047C0460000F87FF0B5474680B44B004A4A5B0D86
:4028C0009D1882B0071C0C1CCE0F132D39DC002D59DB464F021C2F413B1C0B4003439C46B84667460B1C002F25D043465B081A1C0A4010430027002808D0132D00D16FE0EA
:4029000099438023DB022B4119430C1C3849F6008E19231C346875683A1C201C291C01F04FF80090019100980199221C2B1C02F047FA021C0B1C101C191C02B004BC90466C
:40294000F0BD332D0BDD0B1C8021021CC9008D42F1D1211C01F034F8021C0B1CEBE7254A9D1801235B42EB409C460B1C6146021C0142E0D04B080342C8D08027FF052F4195
:4029800098430743C2E74C0064080443021C0B1C002CD0D00903090B01434A4211438022090B12035B0C11405B04021C194310480B1CF10041180C684D68201C291C00F036
:4029C000FFFF0090019100980199221C2B1C02F0F7F94B005B08F6071E43021C331CAAE780273F068CE7C04601FCFFFFFFFF0F0070620000EDFBFFFFF8B5314F161C3B1C39
:402A00000B40041C0D1C0A1C1B1520D14B005B0803431BD000222B4B01F038FF2A4B041C0D1C0A1C9E4222DB0F403F153B1C2749363B9B198B4211DD221C2B1C24482549B2
:402A400000F056F8224A234B01F020FFF8BD22498B4222D01D499B198B42EDDC002B0BDD1E491B050A401343201C191CEEE71C4A1C4B01F00BFFE9E7191C353113DA1A4B9A
:402A80009E42D9DC221C2B1C1548164900F030F8134A144B01F0FAFED8E7291C221C2B1C00F08EFFD2E70D4936330A401B051343201C191C00220D4B01F0E8FEC6E7C046D0
:402AC0000000F07F00005043B03CFFFFFE0700009C7500883CE4377EFF070000FFFF0F8059F3F8C21F6EA50150C300000000903C30B54A00DB0F5208DB071343191C30BDFF
:402B0000002243088B4274D303098B425FD3030A8B4244D3030B8B4228D3030C8B420DD3FF22090212BA030C8B4202D31212090265D0030B8B4219D300E0090AC30B8B4224
:402B400001D3CB03C01A5241830B8B4201D38B03C01A5241430B8B4201D34B03C01A5241030B8B4201D30B03C01A5241C30A8B4201D3CB02C01A5241830A8B4201D38B02E5
:402B8000C01A5241430A8B4201D34B02C01A5241030A8B4201D30B02C01A5241CDD2C3098B4201D3CB01C01A524183098B4201D38B01C01A524143098B4201D34B01C01A5A
:402BC000524103098B4201D30B01C01A5241C3088B4201D3CB00C01A524183088B4201D38B00C01A524143088B4201D34B00C01A5241411A00D20146524110467047FFE7B6
:402C000001B5002000F0FCF802BDC0460029F7D003B5FFF775FF0EBC4243891A1847C04603460B437FD4002243088B4274D303098B425FD3030A8B4244D3030B8B4228D36F
:402C4000030C8B420DD3FF22090212BA030C8B4202D31212090265D0030B8B4219D300E0090AC30B8B4201D3CB03C01A5241830B8B4201D38B03C01A5241430B8B4201D30E
:402C80004B03C01A5241030B8B4201D30B03C01A5241C30A8B4201D3CB02C01A5241830A8B4201D38B02C01A5241430A8B4201D34B02C01A5241030A8B4201D30B02C01A22
:402CC0005241CDD2C3098B4201D3CB01C01A524183098B4201D38B01C01A524143098B4201D34B01C01A524103098B4201D30B01C01A5241C3088B4201D3CB00C01A524166
:402D000083088B4201D38B00C01A524143088B4201D34B00C01A5241411A00D201465241104670475DE0CA0F00D04942031000D34042534000229C4603098B422DD3030A61
:402D40008B4212D3FC22890112BA030A8B420CD3890192118B4208D3890192118B4204D389013AD0921100E08909C3098B4201D3CB01C01A524183098B4201D38B01C01AEC
:402D8000524143098B4201D34B01C01A524103098B4201D30B01C01A5241C3088B4201D3CB00C01A524183088B4201D38B00C01A5241D9D243088B4201D34B00C01A52419D
:402DC000411A00D20146634652415B10104601D34042002B00D54942704763465B1000D3404201B5002000F00BF802BD0029F8D003B5FFF715FF0EBC4243891A1847C046CF
:402E00007047C0468446101C62468C46191C634600E0C0461FB501F0D3FC002801D40021C8421FBD10B501F017FC4042013010BD10B501F0C5FC002801DB002010BD012037
:402E400010BDC04610B501F0BBFC002801DD002010BD012010BDC04610B501F041FC002801DC002010BD012010BDC04610B501F037FC002801DA002010BD012010BDC04685
:402E80008446081C6146FFE71FB500F03BFA002801D40021C8421FBD10B500F0BFF94042013010BD10B500F02DFA002801DB002010BD012010BDC04610B500F023FA0028F2
:402EC00001DD002010BD012010BDC04610B500F0CFF9002801DC002010BD012010BDC04610B500F0C5F9002801DA002010BD012010BDC0469E2110B5C905041CFFF7F0FF02
:402F0000002803D1201C00F0F3FC10BD9E21201CC90500F06FFB00F0EBFC80231B069C466044F2E7F8B54A00430244004E02C50F240E281C9B09120EC90FB7098D4240D03B
:402F4000A01A002800DC84E0002A1CD1002F5CD15A0704D00F221A40042A00D004338022D2041A40281C002A24D00134FF2C00D17BE09B015B0AE4B25B02E4055B0A23435F
:402F8000C0071843F8BDFF2CE2D08022D204174301261B2808DC391C20223E1CC140101A8640771EBE410E439B1B5A0133D4281C5A07CFD1DB08FF2C1ED05B025B0AE4B2C5
:402FC000DAE7A11A002957DD002A3AD0FF2CBFD08022D204174301261B2972DD9B195A01E5D50134FF2C00D187E001218A4A194013405B080B43ABE7002B36D08022D20390
:4030000013435B025B0AFF24B6E7013800283FD1DB1B5A01CBD59B019E09301C02F06AFB05388640844223DC001B1F24321C431C201ADA408640131C741EA6410024334341
:4030400086E7002F00D183E70139002950D1DB19C5E7002820D1621CD2B2012A5EDDDE1B720128D5FE1A0D1CD7E7FF24002383E7694B241A33406BE7002958D1621CD1B2B2
:4030800001293CDDFF2A37D0FB185B08141C5FE7FF2C00D07CE75BE7002C1ED0FF2A23D08024E404404223431B285BDD0123FB1A141C0D1CADE7002EAFD1002300200024B1
:4030C00078E73A1CCA40944620223E1C511A8E406246771EBE41164380E7002B3ED0C0430028E4D0FF2ADFD13B1CFF240D1C2FE7FF2C00D06FE72BE7FF2400235AE7002CA6
:403100005AD1002B7FD0002F00D121E7DB195A0100D44CE7404A0134134019E7002C15D1002B2FD1002F5DD03B1C0D1C10E7002C21D1002B53D0C943002904D0FF2A4BD0B1
:403140001B2957DD0123DB19141C48E7002B22D1002F4AD03B1C0D1CFF24F9E63B1C141C0D1CF5E61D1C2024C540201A8340581E83412B439BE7FF2A2ED08024E404494205
:403180002343DDE7002F00D1E2E6DA1B50013CD5FB1A0D1CDCE6FF24002F00D1D8E68022DB08D203134204D0FE08164201D1331C0D1CDB00FF24CBE6002B0DD0FF24002FB1
:4031C00000D1C5E68022DB08D2031342F1D0FE081642EED1331CECE73B1CFF24B8E63B1C141CB5E6231C0020E4E6802300209B04FF24DFE61E1C2024CE40611A8B40591EAE
:403200008B4133439FE73B1CA2E6131E00D0CEE600230020CEE6C046FFFFFFFB430270B542004C005D0AC30F4802120E460A240EC90FFF2A05D0FF2C08D00120A2420BD067
:4032400070BD0120002DFBD1FF2CF6D10120002EF6D10120A242F3D1B542F1D18B4205D0002AEDD1281C431E9841E9E70020E7E7F0B543024D024A0044005E0A240EC30F84
:403280006D0A120EC90FFF2C0DD0FF2A31D0002C0DD177427741002A23D1002D21D10020002F0BD107E0002E28D1FF2A21D0002A05D08B4207D0584201231843F0BD002DCC
:4032C000F9D08B42F7D19442F5DC04DBAE42F2D80020AE42F2D25842434101205B421843ECE7002FE5D048424141012049420843E4E7002D02D1002CCBD0DAE70220404274
:40330000DCE7C0464302F0B542004C005E0AC30F4802120E450A240EC90FFF2A0FD0FF2C1AD0002A10D177427741002C29D0002F17D0484241410120494208430BE002206B
:40334000002E08D1FF2C07D0002C0AD1002D08D1584201231843F0BD0220002DFBD1002AE1D08B42F4D1A242F2DC04DBAE42EFD80020AE42EFD25842434101205B42184399
:40338000E9E7002DD3D10020002FE4D1E0E7C046F0B55F4656464D464446F0B445024600C40F83B00F1C6D0A360EA34645D0FF2E25D080231B041D4300239A46ED007F3E8C
:4033C00001937B025B0A98467800FB0F000E994640D0FF2838D0802342461B041343DB00984600237F384A46019F30186240411C1F430F2F69D87D4EBF00F659B746002D3D
:4034000045D108230193063B9A46DAE793465346022B2FD15B46012400251C40FF236D02DB056D0AE4071D432543281C03B03CBC90469946A246AB46F0BD002D2CD10423D9
:403440000193033B9A46BCE743465A4253410322D31AC8E742460123002AC4D0404602F049F94246431F9A4076235B42181A90460023B8E7032B00D1ADE0012B00D08CE0A1
:403480005B4654461C40E4B200230025C7E70C230193093B9A4694E7281C02F02BF97626431F9D4000237642361A01939A4688E780250024ED03FF23B1E74546CB469A4655
:4034C000A5E7454693469A46A1E743462C041B0C9C46230C444626041C1C360C2F0C7443351C66467D4373437743EB18260C9E19B54203D980235B029C466744240433048B
:40350000240C1B199D016C1EA5419B0E360C2B43BD19AD011D432B0104D5012368081D400543081C031C7F33002B2CDD690704D00F212940042900D00435290103D52C4BE9
:403540001D40031C8033FE2B17DD0124FF231440002564E78020C003054209D04346034206D1454605436D026D0A4C46FF2356E705436D026D0AFF2351E70124AD016D0A50
:40358000DBB214404BE77E235B421B1A1B2B07DD012400231440002541E7081C5A46C1E79E30291C8540D940681E85410D436B0704D00F232B40042B00D004356B0104D519
:4035C000012401231440002529E70124AD016D0A1440002323E78023DB031D4301245B466D0223401C1C6D0AFF2318E780620000FFFFFFF7F8B54A00430244004D02C00F71
:40360000240E061C9B09120EC90FAD09FF2A00D175E001277940884250D0A01A002800DC8FE0002A1ED1002D00D075E05A0704D00F221A40042A00D0043380220120D204A4
:403640001A403040002A32D00134FF2C00D184E09B015B0AE4B25B02E4055B0A2343C0071843F8BDFF2CE1D08022D20415431B287ADD01255B1B5A015DD59B019F09381C39
:4036800002F038F805388740844269DC001B1F243A1C431C201ADA408740131C7C1EA74100243B43C2E7131E45D100230020DB08FF2C28D05B025B0AE4B2CCE7A11A002930
:4036C0005BDD002A2ED0FF2CB0D08022D20415431B2974DC2F1C2022CF40511A8D40691E8D413D435B195A0125D50134FF2C74D001217E4A194013405B080B4396E7002D54
:4037000000D088E785E7002B27D08022D20313435B025B0AFF249EE701380028AAD0FF2CA5D183E7002D00D180E701390029D9D0FF2CCDD17AE75A0700D079E701203040E2
:40374000B5E7002825D1621CD2B2012A55DD5F1B7A012DD5EF1A0E1C91E7FF2400237AE7624B241A3B4061E7291C2022C140101A8540681E85410D437CE7002946D1621C05
:40378000D1B201292BDDFF2A26D0EB185B08141C4CE7002C15D0FF2A1AD08024E404404223431B284DDD0123EB1A141C0E1C62E7002F00D063E700230020002477E7012567
:4037C00090E7002B39D0C0430028EDD0FF2AE8D12B1CFF240E1C29E7FF24002367E7002C5AD1002B7FD0002D00D11FE75B195A01A1D53E4A0134134018E7002C15D1002BB6
:403800002FD1002D5ED02B1C0E1C0FE7002C21D1002B54D0C943002904D0FF2A4CD01B2958DD01235B19141C5DE7002B23D1002D4BD02B1C0E1CFF24F8E62B1C141C0E1C0C
:40384000F4E61E1C2024C640201A8340581E83413343A9E7FF2A2FD08024E40449422343DDE7002D00D1E1E65A1B500100D41AE7EB1A0E1CDAE6FF24002D00D1D6E6802276
:40388000DB08D203134204D0ED08154201D12B1C0E1CDB00FF24C9E6002B0DD0FF24002D00D1C3E68022DB08D2031342F1D0ED081542EED12B1CECE72B1CFF24B6E62B1C37
:4038C000141CB3E6231C0020F1E6802300209B04FF24ECE61F1C2024CF40611A8B40591E8B413B439EE72B1CA0E6C046FFFFFFFB4202510A4200C30F120E00207E2A0DDD08
:403900009D2A0CDC802000040143952A0ADC9620821AD1400A1C58424240D0187047034A9818FBE7963A91400A1CF4E7FFFFFF7F70B5041E39D0C50F00D04442201C01F063
:40394000D9FE9E23261C1B1A962B07DC082801DD083884406402640AD8B21EE0992B0ADD0522211C121AD1400A1C011C1B318E40711E8E411643052801DD421F96400F4C29
:403980003440720704D00F221640042E00D0043462010ED4A401640AD8B26402C005640AED0704432C43201C70BD002500200024F3E7024B1C409F231B1AEBE7FFFFFFFB4A
:4039C000F0B5454657464E4694464C000A03C90FE0B488460E1C1903470FC500480A6146490F01436046520A1743C0005A00640D520DDB0F8446984500D1A7E0A01A0028F2
:403A000000DC01E1002A3DD163460B4300D0D4E06B0700D188E00F232B40042B00D183E02A1DAA42AD4180236D427F191B043B404646151C002B00D17CE0CC4B01349C4286
:403A400000D1FDE03A1CCA4BED081A405007640552020543120B640D002112030B0D1B056405120B1A436308C24CF60714401C43640064083443281C211C1CBC9046994625
:403A8000A246F0BDB94B9C42C2D080231B041943382800DDECE01F2800DD21E120220E1C6346121A9640C340334366469640321C561EB24113430A1CC240EB1A9D42B64190
:403AC0001D1CBA1A7642971B3B0200D497E07A02560A002E00D1B6E0301C01F00BFE031C083B1F2B00DDB7E09E40371C28262A1C361AF240161C9D403E439C4200DDB2E0CC
:403B00001C1B621C1F2A00DDD8E01F23291C1C1B331CA540A340D1406C1EA541D64019430D43371C002473E780231B043B40464600D082E78D4BED0878070543FA089C4293
:403B400032D012036405120B640D85E7A31A002B00DC94E0002A3CD0844A944200D157E7802212041143382B00DC05E163461943481E81410022C8B24019A8429B41051C70
:403B8000D2195B42D7183B0239D5784B01349C4200D14CE10120764A6B083A4028401843D5070543570833E72B1C134348D080231B031A431203120B4EE70138002878D15D
:403BC0006346EE1AB5429B417A1A5B42D71A351C7AE7021C0A4300D11AE7013B002B00D0F2E04019A8429B41CA195B42D718051CC9E7131C334300D118E1171C351C464649
:403C00006B0700D007E795E700287AD1621C5205520D012A00DCFBE06246AA1A9542B6419146781A7242861A320200D493E06246551BAC458041CF1B40423E1A984648E742
:403C40000022002508E7281C01F054FD2030031C083B1F2B00DC47E7283885402E1C00259C4200DC4CE7424AE41A1640371CCFE6634619434B1E99410022CBB21DE7002B03
:403C800000D0F2E0601C43055B0D012B00DCA4E0364B984200D121E163465C19AC429B41CF195B42FA186408D50725435708041CAEE62E4B9C4200D0EAE6A9E6211C331C28
:403CC0001F39CB40191C202A00D182E03F231C1BA64035436E1EB54100270D4300248EE7031C0E1C203BDE40202874D040231B1A99400B1C62461343591E8B410022334367
:403D0000DBE6002C50D0194CA24200D1A8E08024240440422743382800DDD9E01F2800DD39E120243E1C241AA640B0462E1CA146C640444626434C46A5406C1EA541C74018
:403D400035436046451BCF1BAC45894149427F1A141C9846B8E64B464D46334300D0B8E60026002700240025E4E6C046FF070000FFFF7FFFFFFF0F801F2B5BDC2022081CEC
:403D8000D21A9040814660469246D8404A4610438146524660469040021C501E8241484610430A1CDA40E7E63C1C2C4358D0C043002851D16046451BAC458041CF1B404295
:403DC0003F1A141C98467FE68F4A944200D0CAE61EE600267DE700238CE73B1C2B43002C00D0BDE0002B00D1F5E063460B4300D10EE663465B19AB428041CA19404217185A
:403E00003A0200D4FCE0814A1D1C17400134FFE53A1C2A43002C51D1002A00D085E062460A4303D00F1C65469846F1E50026002700257FE6181C0A1C2038C240202B00D1B9
:403E4000A7E04020C01A8140081C63461843411E8841104300228FE66B4CA24200D05AE70F1C6546141C9846D2E5002C3AD1381C284371D0DB43002B18D0634882426BD02D
:403E8000382B00DD9DE01F2B00DDA7E020203C1CC01A8440A1462C1C8246DC404846044350468540681E8541DF402543654465459B417F185B42FF18141C64E6002A19D143
:403EC00062460A4377D00F1C654698464E4C9FE53D436F1EBD410027EDB232E7041C0027002527E64848824236D0802000045B420743C5E762460A4349D08024ED0878079A
:403F0000FA0824032843224209D0CE08264206D162464F07381CD20810439846321CD200470F1743C500384C72E562460A4300D16EE56246AE1AB5429241781A5242821AB9
:403F4000100200D455E66246551BAC458041CA1B4042171A98465BE50F1C6546141C57E5002B34D063460B4311D08024ED087807FA08240328432242D1D0CB082342CED1CF
:403F800062464F07381CD20810431A1CC7E71E4C3EE5002059E7041C3E1C203CE640341C20282BD04026301A87403D436F1EBD4100272543C5E680270026FF03124C002514
:403FC000B8E53D436F1EBD410027EDB26EE70F1C65460D4C1CE50F1C654619E51C1C381C203CE040041C202B0CD04020C31A9F403D436F1EBD410027254357E70027D4E7D5
:404000001D1CFCE50027F3E7FF070000FFFF7FFFF0B55F4656464D464446F0B40F0387B098464D003B0BCC0F061C924681469B466D0D01946BD0664B9D4235D080275B46DE
:404040007F031F43F3009946624BFF00400F9C4607430023BB46002665440093424617035000D20F53463F0B400D904600D172E0574A904267D080235B031F435346554A9C
:404080005B0FFF001F43944653460021DB0060444246624092462D1A0E430F2E00D9A1E04D48B600805987465B461E4300D076E000239B469946023308260093CEE799466B
:4040C0004346BB4601930091009B022B6BD1019B9A46002153460122002789461A403C4B00213F030C0D24053F0B27433B4C1B0527401F437F00D2077F0817434846391CF8
:4041000007B03CBC90469946A246AB46F0BD03433ED05B46002B00D19CE1584601F0EAFA2823311C1B1A021C5F46D940083A97400B1C96403B439B46B1460023284D0026E1
:404140002D1A00938AE7524603213A43A0D10027002302219CE752463A4315D0002F00D185E1381C01F0C6FA021C28215046891A131CC8405146083B99409F400B1C07431B
:4041800017480021801A83E70027002301217FE700239B4699460133042600935EE703230C2600935AE7032B00D13CE2012B00D0BFE11A1C019B1A40002100230027894645
:4041C0008EE700238027994600223F03004B87E7FF07000001FCFFFFC0620000FFFF0F800DFCFFFFBB4500D951E100D14CE14A46039200225C469046013D180E3F023843E5
:404200001B020193030C994603041B0C4946061C201C1F1C0093FEF773FC021C7A4302904946201C171CFEF7F1FC039B09041B0C19438F420CD9029B8919013B8E4200D93D
:4042400052E18F4200D84FE1029B8919023B0293CC1B201C4946FEF753FC009F834647434946201CFEF7D2FC039A0B041404240C23439F420DD95A469B19013A9E4200D942
:4042800030E19F4200D82DE10222524294469B19E344029ADB1B17045A463A439346019C170C220C101C04925A4611042204120C141C090C7C4305924A43414347436118BE
:4042C000100C09188C4203D980204002844667440C0C12040804120C3C198118A34200D2E5E000D1DFE01F1B43465C1AA04592415242BF1AB74200D10EE1381C4946FEF73F
:40430000FFFB009B029043434946381C9846FEF77DFC230C0F041F43B8450CD9029BBF19013BBE4200D9FBE0B84500D8F8E0029BBF19023B02934346FF1A4946381CFEF748
:40434000DFFB009B039043434946381C9846FEF75DFC24040904240C214388450CD9039B8919013B8E4200D9DCE0884500D8D9E0039B8919023B03934346C91A029B039A2D
:404380001B04059C1A43100C13049146221C049F1B0C5A4344437B437843E318170CDB199C4203D980246402A44660441C0C12041B04120C00199B18814200D296E000D1AA
:4043C000FCE04A4601231A4391469B4BEB18002B00DC99E04A4652070AD00F2249460A40042A05D00431494592418946524293445A46D20106D55A46904B1A408023934651
:40440000DB00EB188E4A934200DD62E64A465946D208490711435A4689465702514601225B053F0B5B0D0A405AE680205A460003024208D0074206D107433F0399463F0BCD
:404440004246804B4CE65F4607433F033F0B221C7C4B45E601F04EF9031C2030272800DC5EE6083B9E400023B346994665E6504601F040F9021C2032272A00DC75E657463A
:404480000838874000237BE6994500D2AFE65A46594654084A46C8075208024303924A46D2079046A9E60027884500D31CE7019F5A46BC46E044B845BF417F42BF19FF1853
:4044C000013ABE4206D2BC425FD800D19FE03F1B934609E7B742FAD1019B4345F3D9371B934601E79346D4E60293B1E64A468919013A8E4218D99146814200D061E7019A00
:404500009A4200D05DE760E74F4F7F1B382F13DD012253461A404FE601235B42994654E7029308E7039327E788423CD874D0914647E7019B9A4648E71F2F44DC434B4A4609
:404540009C465B466544FA40AB4013434A46AA40151C6A1E95415A46FA402B43171C5A0709D00F221A40042A05D01A1D9A429B415B42FF18131C3A023ED55346012200214A
:404580001A40002701238946AAE502235B429C46019AE3449446E04490459B415B429B19DF193F1BA0E6019F4A467C00BC42BF417F42BF19023AC91901949CE7002B95D1B0
:4045C000002201929BE75A46214B5B1BDA40202F27D0204B9C465B466544AB4049460B43591E8B411343072200271A4007D00F2200271A40042AB8D17A077F023F0BDB0891
:4046000013439946012253461A40002368E54145BBD89346002767E6019C9C42C3D391466DE70023DAE780275B463F031F433F033F0B019A034B53E5FF030000FFFFFFFEA3
:40464000FE070000FF07000002FCFFFF1E040000E2FBFFFF3E040000F0B55F464D4644465646F0B41F035C00DB0F99461B4B0E034D00C90F8446360B6D0D8B4690463F0BF4
:40468000640D9D420CD0154B9C4210D00123A54214D0181C3CBC90469946A246AB46F0BD311C01230143F4D10C4B9C42EED13A430123002AEDD10123A542EAD1BE42E8D1E4
:4046C000C445E6D1CB4506D0002DE2D13043031C581E8341DDE70023DBE7C046FF070000F0B5574645464E46E0B40F034E00C90F8A4632491D035C0084463F0B760D904652
:404700002D0B640DDB0F8E420FD08C4239D0002E10D13843414241418946002C27D12A4325D1002000290ED108E0391C01432ED1B44226D0002C0BD09A450DD053465942F0
:4047400001231943081C1CBC90469946A246F0BD2A43F3D09A45F1D1A642EFDC1ADA504641424841012341421943081CEBE74A46002AE1D058425841012241421143081CA4
:40478000E1E7291C114302D1002EC2D0D4E702204042D8E7AF42D1D809D00020AF42D2D2504641424841012340421843CBE7C445C4D80020C445F3D3C5E7C046FF0700001E
:4047C000F0B55F464D46444656468046F0B4061C0803000B84462C484C001F035D00C90F640D8B4691463F0B6D0DDB0F844212D0854225D0002C14D161460E4370424641C6
:40480000002D35D0002E21D058425841012143420B43181C0EE06146022031430AD1A5420ED0002D12D13A4310D15B46594201231943081C3CBC90469946A246AB46F0BD7F
:40484000391C02201143F5D1002CD5D09B45ECD1AC42EADC05DBBC45E7D80FD00020BC45E8D2584641424841414201200843E1E73A43C7D10020002EDCD1D6E7C845D4D844
:404880000020C845EDD3D5E7FF070000F0B55F4656464D464446F0B4051C061C080387B099464F00030BCC0F92469B467F0D019467D06C4B9F4236D080205B464003184378
:4048C000C0006B0F1843684B83469C4600239846EE00674400934B4649461D03C90F5B0052462D0B5B0D894600D16EE05D498B4264D080205C4940038C4600210543ED00A8
:40490000500F0543D20063444846FF187B1C9A46009B604002900B430F2B00D9ACE053489B00C3589F465B461D4300D082E00823009300239B46023300269846CBE7029BCE
:4049400001934346022B59D1012400250026019B1C40444B00212D030A0D12052D0B1543434A1B0515401D436D00E4076D082543301C291C07B03CBC90469946A246AB4658
:40498000F0BD2B434ED05B46002B00D185E1584600F0B0FE021C2823291C9B1A161C5846D940083EB0400B1CB54003439B462E1C0023304F0093BF1A98468CE7514629430E
:4049C0002ED10025002202219EE75146294323D0002D00D154E1281C00F08CFE031C28215046C91A1A1CC8405146083A914095400A1C05431F480021C31A85E7032B00D106
:404A0000C2E1012B00D06DE14446019B00251C40E4B2002300269DE700250022012173E7032171E70423009300239B4601330026984650E70C230093093B98464BE7802558
:404A400000242D030026074B84E74B46AB46161C0193884675E7029BAB46161C019388466FE7C046FF07000001FCFFFF00630000FFFF0F800DFCFFFF330C3604360C9C467A
:404A8000331C140C1204120C53439846634653439946634663430193331C41466343090C4B445B18994505D9802040028146019949440191190C039141460904090C1B04AC
:404AC0005B1804932B0C9846331C2D04290C4B43604600934346654658435E43009B4D431B0C9946AE194E448446B54203D980235B029946CC44350C2B1C03986344844601
:404B00000593009B36041B041B0CF3189C446046039058460504060C280C84465043351C81466046654344434846000C8346724314195C44A24203D98022520293465D4452
:404B4000220CAD184A461204120C24044046A41862464A437143464360460096464670438046100C84468844E044414505D9802149028C460099614400910198039984469B
:404B8000614499429B415B4299460598434684461204120C1B049B1863449C46AB4683429B4140460A19CC44A2428941E344CC45B6415C46000C8046494276425B426418A6
:404BC000334398448C428941AB459B4149425B4219430D1C009B4544EE187602E50D2E43B346049B56021E43731E9E415B46D20D324366021643DB010AD501233340760806
:404C00001E435B46DB071E435B465B089B465746634BFB18002B5ADD720709D00F223240042A05D0321DB242B6417642B344161C5A46D20106D55A465A4B1A40802393460E
:404C4000DB00FB18584A934234DD0124029B00251C400026554B7DE680205B460003034208D0054206D105432D032D0B4C46161C4E4B6FE65D4605432D032D0B4B4B69E639
:404C8000504600F037FD031C2033272B00DCA6E65546083885400022ACE6281C00F02AFD021C2032272A00DC75E6083885400026AB467DE65A46F608520716435A460124D3
:404CC0005502029A5B052D0B5B0D144042E6384DED1B382D0ADD0124029B00251C400026002337E6019B5746029391E71F2D25DC304B321C9C466744BE405B46BB40371CED
:404D0000EA407E1EB74113433B431E1C5B46EB401D1C730709D00F233340042B05D0331DB342B6417642AD191E1C2B0220D50124029B00251C40002601230BE65A461E4B09
:404D4000DB1BDA40131C202D1CD01C4A94465A466744BA40171C3E43721E96411E4307230025334007D00F2300253340042BD6D16B076D022D0B0124F6081E43029B1C40EB
:404D80000023E7E50027E6E780255B4601242D031D43019B2D0323401C1C2D0B034BD9E5FF030000FFFFFFFEFE070000FF07000002FCFFFF1E040000E2FBFFFF3E04000027
:404DC000F0B54D4644465F465646F0B40E1C111C3203520A470F1743C5001A035800DB0F9946520A4B0F83B01A43CB000193CF4B7400F60F640DB046400D984200D1E8E012
:404E00000123494659400B1C9E4200D1B1E0261A002E00DC1CE1002842D1131C01990B4300D0E6E06B0700D18EE00F232B40042B00D189E02A1DAA42AD4180230126414665
:404E40006D427F191B043B400E40151C002B00D183E0B64B01349C4200D116E13A1CB44BED081A405007640552020543120B640D002112030B0D1B056405120B1A4363084D
:404E8000AC4CF60714401C43640064083443281C211C03B03CBC90469946A246AB46F0BDA24B9C42BED080231B041A43382E00DD03E11F2E00DD3FE12020831B9946131CC7
:404EC00049468B409C46019B6046F34003430198F2408840011C481E81410B43EB1A9D4280411D1CBA1A4042171A3B0200D4A8E07A02560A002E00D1CAE0301C00F0FAFBE1
:404F0000031C083B1F2B00DDCBE02822291C121AD1409E400A1C9D4032439C4200DDC8E01C1B671C1F2F00DDEDE01F23291C1C1B131CA540A340F9406C1EA541FA40194312
:404F40000D43171C00246DE78023012642461B043B401640002B00D07BE7744BED0878070543FA089C423BD012036405120B640D7EE7231A9A46002B00DCA5E0002844D0DB
:404F80006A48844200D14DE78020000402435346382B00DC1CE1019B1A43511E8A41D1B200224919A94280410D1CD219404217183B0246D55D4B01349C4200D169E10120BC
:404FC0005B4A6B083A4028401843D5070543570828E7131C01990B4300D111E74B4613E72B1C134351D080231B031A431203120B3EE7013E002E00D080E0691A8D429B4161
:40500000BA1A5B42D71A0D1C6FE7101C019B184300D107E701235B429C46E2445346002B00D002E1019BD2195919A9429B415B42D7180D1CBCE76346034300D128E1071C69
:4050400065466B0700D0F0E6012643461E4084E7002E00D081E0601C4005400D012800DC07E10199681A84466545B641B81A7642861B300200D4A1E08C464D1BAC4589416C
:40508000D21B4942561A984634E700220025EFE6281C00F02FFB2030031C083B1F2B00DC33E7021C283A95402A1C00259C4200DC36E71F4FE41A1740B4E6019B1A43511E47
:4050C0008A41D3B2002209E7002B00D001E1601C43055B0D012B00DCB0E0144B984200D11EE1019BD2195919A9429B415B42D2184908D5070D435708041C93E60B4B9C42B4
:4051000000D0D3E68EE6211C131C1F39CB40191C202F00D18EE03F231C1BA24015436A1E954100270D4300248BE7C046FF070000FFFF7FFFFFFF0F80331C101C203BD8409F
:40514000202E79D040239B1B9A40131C019A1343591E8B4100220343C0E6002C53D0C74CA04200D1B0E0802471428946240427434946382900DDCDE01F2900DD59E12024BA
:405180003E1C611A8E408A46B04649462E1CCE405146B4468D4064464646494626436C1EA541CF4035430199D71B8C464D1BAC4592415242BF1A041C984696E66346654657
:4051C000334300D096E60026002700240025C4E61F2B61DC2020C31A9B46131C59468B4051469946019BCB409C464B46604603439C465B46019999406346481E81411943F0
:405200005346DA40CDE63C1C2C435DD0F1438946002955D10199D21B8C464D1BAC4589414942571A041C98465FE69448844200D0ADE6F7E5002271E7002387E73B1C2B4356
:40524000002C00D0DAE0002B00D113E1131C01990B4300D1E6E54919A9429B41D2195B42D7183B0200D421E1854B0D1C1F40041CD8E5381C2843002C40D1002800D083E096
:40528000101C0199084303D0171C0D1C9846C9E500260027002560E65046131C2038C340181C5346202B00D1C1E0402351465B1A9A40019911434A1E91410022014370E693
:4052C0006E4CA04200D053E7171C019D041C9846A8E5002C28D13C1C2C4300D18AE0DB439A46002B00D082E0019BD2199C4665449D42894149425718041C59E600285BD1C2
:40530000101C0199084300D1A4E0171C0D1C98465A4C87E53D436F1EBD410027EDB242E7041C0027002518E6544CA04262D0534680245B429A46240427435346382B00DD7E
:405340008EE01F2B00DD9DE02024E31A9B463B1C59468B40514699462B1CCB409C464B46644623439C465B469D4063466C1EA541CF401D43019BBF189C4665449D42924155
:405380005242BF18041C13E6101C0199084300D148E5681A844685428041BE1A4042301A060200D447E68C464D1BAC458941D21B4942571A984635E5101C0199084334D0EE
:4053C00080247807ED08FF0824032843274208D0D608264205D1C90852070A43101C371C9846FF00420F1743C500244C1AE5234CA042A2D1171C019D041C13E5002B35D010
:40540000131C01990B4310D080247807ED08FF08240328432742E4D0D3082342E1D1C90852070A43101C1F1CDBE7144CFAE400223FE74C463E1C203CE6404946341C2029F9
:4054400032D04026761AB7403D436F1EBD4100272543A8E680270026FF03084C00257CE53D436F1EBD410027EDB283E7171C019D024CD7E4171C019DD4E4C046FF070000C2
:40548000FFFF7FFF54463B1C203CE3401C1C5346202B0DD0402351465B1A9F403D436F1EBD410027254365E70027CDE70D1CC8E50027F3E738B5041E16D0C50F00D0444202
:4054C000201C00F017F9174B1B1A0A2821DC021C211C153291400A1C0B21081AC4405B052403240B5B0D03E000250023002400220021101C24030A0D1205240B14430A4AB4
:405500001B0514401C436400ED0764082C43211C38BD0B3884405B052403240B5B0D0022E6E7C0461E040000FFFF0F804200120E511C38B5C9B243025D0AC40F012915DD98
:40554000E02189008C466D071B0B62440021281C0D0D2D052B431C4D52052B40520813435B00E4075B082343191C38BD002A15D1002D1FD0281C00F0BDF80A281DDC0B23EE
:405580002A1C1B1ADA40131C021C153295400F4A1B03121A52051B0B520DD7E7002D06D080221B0B120313436D07094ACEE7084A0023CBE700220023C8E7031C0B3B9D40A1
:4055C0002B1C0025E3E7C046FFFF0F8089030000FF07000070B50B034D00440F6D0D5B0A23436C1C6405C90FC200640D012C2ADD3B4C2C19FE2C1ADC002C35DD8001451EFA
:40560000A841DB000343520F13435A0704D00F221A40042A00D004338022D2041A4027D00134FF2C03D09B015B0AE4B201E0FF2400235B02E4055B0A23435B00C9075B085B
:405640000B43181C70BD002D06D113430ED100245B025B0AE4B2ECE71A43E8D08020DB0080040343FF24D0E717340CDA05230024DB08FF2CECD1002B2DD08022D203134382
:405680005B025B0AD5E78024164824042343401B1F280DDC144CA4466544AB401C1C131CAB405D1EAB41C240234313430024ACE71E1C0E4C641BE640341C20280DD00C4843
:4056C00084466544AB401D1C2A43531E9A41131C2343002499E70023ABE70025F4E7C04680FCFFFF9E03000082FCFFFF7E030000A2FCFFFF1C2101231B04984201D3000C78
:4057000010391B0A984201D3000A08391B09984201D30009043902A2105C40187047C04604030202010101010000000000000000014B18687047C0464C0100200E4B70B542
:4057400000251E1C0D4CE41AA410A54204D0AB00F35898470135F8E700F00EFE084B00251E1C084CE41AA410A54204D0AB00F35898470135F8E770BD8463000084630000C6
:40578000846300008C630000002310B5934203D0CC5CC4540133F9E710BD031C8218934202D019700133FAE7704700000CB430B5174B9DB01D68002904DA8B2301202B6073
:4057C00040421FE0822302AA9B009381002302901061994200D04B1E9360536101235B42D3810C1C21AB111C281C209A019300F071F8431C01DA8B232B60002C02D0002392
:40580000029A13701DB030BC08BC02B01847C0464C010020F0B58E6885B0071C0C1C03920193B34245D390238A89DB001A423DD003250969236801985B1A029363695D43B9
:40584000EB0F5D19029B6D1001331B189D4200D21D1C381C53050FD5291C00F01DFB061E13D0029A2169FFF78FFFA289184B134080221343A38111E02A1C00F065FB061E17
:405880000CD1381C216900F0C1FA0C23402201203B60A38940421343A38117E0029B2661F61826606561019EED1AA560019BB34200D2019E321C2068039900F092FA0020DD
:4058C000A3689B1BA36023689E19266005B0F0BD7FFBFFFFF0B59FB0029005938B890E1C171C1B0610D50B69002B0DD1402100F0D3FA30603061002804D10C23029A0138F0
:405900001360D0E040237361002306AD6B6120336B761033AB763C1C2378002B03D1E31B049312D003E0252BF9D00134F4E7049B0298311C3A1CFFF76DFF431C00D1ACE064
:405940006A69049B944663446B612378002B00D1A3E00122002352426A6002A95432521801342B60EB60AB601370AB654F4F2178381C052200F02AFA002808D0C01B01279D
:405980008740381C2B68013418432860EEE72B68DA0604D55322202102A8121811701A0704D553222B2102A81218117022782A2A01D0099B0EE0059A111D12680591002A8D
:4059C00001DB099204E05242EA60022213432B60013409E02278303A092A04D80A214B4301349B18F6E7099323782E2B18D163782A2B09D1059B02341A1D1B680592002BE5
:405A00000DDA01235B420AE0002301342278303A092A04D80A214B4301349B18F6E70793234F2178381C032200F0D0F9002807D0C01B40278740381C2B680134184328600D
:405A400021781C480622671C297600F0BFF9002812D0194B002B06D10722059B073393430833059314E005AB00930298291C321C124B00E000BF07E005AB00930298291CB2
:405A8000321C0E4B00F08AF80390039B013304D06B69039A9B186B613DE7B3890B985B0601D5012040421FB0F0BDC04642630000486300004C6300000000000015580000D9
:405AC000F7B5171C01930A698B6800900C1C934200DA131C221C3B6043321278002A01D001333B6023689B0602D53B6802333B60062523681D401ED0231C43331B785A1E5E
:405B00009341226892061CD53020E1184031C870211C5A1C45310978A21840320233D1700FE0221C0123009801991932089EB047431C0ED00135E3683A689B1A9D42F0DB16
:405B4000DAE7221C009801994332089DA847431C02D10120404220E006232068E1683A6803400025042B03D18D1AEB43DB171D40A3682269934201DD9B1AED180027AF42D0
:405B80000ADA221C0123009801991A32089EB047431CDED00137F2E70020FEBDF0B58BB006920A1C43320793059004920A7E0C1C109B6E2A00D1A8E011D8632A22D009D81E
:405BC000002A00D1B2E0582A00D0C2E045310A707C4A4FE0642A1DD0692A1BD0B9E0732A00D1A7E009D86F2A29D0702A00D0B0E0202209680A43226037E0752A1FD0782A82
:405C000033D0A6E00E1C1A684236111D196013683370A1E021681A68080606D4490604D5111D19600023D55E02E0111D19601568002D3BDA2D23049A6D42137036E0216852
:405C40001A68080606D4490604D51568111D1960ADB202E0111D196015685A4B227E03930A276F2A1DD108271BE0221C782145321170554A19680392081D226818600D682C
:405C8000100602D4500600D5ADB2D30702D520231A4322601027002D03D1202322689A432260231C002243331A7002E00A27454B03936368A360002B03DB04222168914343
:405CC0002160002D02D1049E002B0ED0049E281C391CFCF79BFF039B013E5B5C281C3370391CFCF70DFF051EF1D1082F09D12368DB0706D563682269934202DC3023013E08
:405D00003370049B9B1B23612BE009681A68080607D4490605D5111D19601368A28A1A8004E0111D1960136862691A600023049E236116E01A68111D196016680021301C51
:405D4000626800F043F8002801D0801B6060636803E0261C42363270012323610023049A1370079B05980093211C069B09AAFFF7A7FE431C02D10120404221E023690598E7
:405D80000699321C079DA847431CF4D023689B0705D4099BE068984212DA181C10E00025E368099A9B1A9D42F3DA221C0123059806991932079EB047431CDCD00135EFE754
:405DC0000BB0F0BD5363000064630000C9B28218904204D003788B4202D00130F8E70020704710B5814208D28B18984205D29B1A013A09D3995C8154FAE70023934203D00A
:405E0000CC5CC4540133F9E710BD000030B500293ED004390B68002B00DAC9181D4A1368141C002B02D14B60116031E099420DD208680A189A4203D11368C3180B605368DA
:405E40004B60216024E08A4203D8131C5A68002AF9D11D685C198C420BD10968691858181960904214D110685268091819605A600EE08C4202D90C23036009E008680C1804
:405E8000944203D114685268001908604A60596030BDC04668020020032370B5CC1C9C430834051C0C2C01D20C2405E0002C03DA0C2300202B6042E08C42F9D3204A13688E
:405EC000101C191C002913D00A68121B0DD40B2A02D90A608B181FE08B4202D15A6802601BE04A685A600B1C17E00B1C4968E9E7144E3368002B03D1281C00F04BF83060A5
:405F0000281C211C00F046F8031C421CD0D00322C61C964386420AD11C60181C07210B301A1D8843821A0AD05142995007E0311A281C00F02FF8431CBAD0331CECE770BD46
:405F40006802002064020020F8B5061C0C1C151C002904D1111CFFF79FFF041C18E0002A03D1FFF753FF2C1C12E000F025F8A8420ED2301C291CFFF78FFF071E07D0211C6D
:405F80002A1CFFF701FC301C211CFFF73FFF3C1C201CF8BD38B50023064C051C081C2360FAF74CFD431C03D12368002B00D02B6038BDC046800300200B1F1A68101F002A57
:405FC00004DA891804390B68D0180438704700000000000000000000426F6172645F4D61696E00005B46494C45203A2025732C2046554E43203A2025732C204C494E452020
:406000003A2025645D3A2043563A2025642C2045433A20256C642C204D563A2025640A0D000000002E2E5C2E2E5C736F757263655C626F6172646D61696E2E6300000000A3
:4060400000FF0100010000FFFF0000010001FF0047019C0043616C63756C6174650000005B46494C45203A2025732C2046554E43203A2025732C204C494E45203A20256420
:406080005D3A2043563A2025642C205343563A2025662C2053563A2025642C205353563A2025660A0D0000002E2E5C2E2E5C736F757263655C7069642E6300002D1200000A
:4060C00081120000451200005D120000556C747261736F6E69635F4D65617375726500005B46494C45203A2025732C2046554E43203A2025732C204C494E45203A20256464
:406100005D3A204E3A2025642C20583A2025642C20433A20256C640A0D0000002E2E5C2E2E5C736F757263655C756C747261736F6E69632E6300000000300F400004004006
:406140000F40000410300F400F310F4008330F4007400F400A410F400D430F4002600F403D4059045F0186049A019E02A409A606AA08AC0AAE05B60FBE40D804DB04DF01D3
:4061800005080C800D20154017241F4020016D406F0478108080C020C2C0C4E0DE0488109C10A908AB20AF40B401B520EC4000010201051006208201C0F0E0204B109310A4
:4061C000A801A910AF10B620D210E880EA10EC2000081C20300854108804A008B408C008C604CC02D402E204EC08020111010000030405060708090A0B0C0E0F10111213B5
:406200001415161718191B1C1D1E1F2021222325262728292A2B2E2F3031323334350000EEDBC9B9AA9B8E82766B60564D443B332C241D17100A0400706F770000000000EE
:4062400000000000000000000000004003B8E23F000000000000000006D0CF43EBFD4C3E000000000000F03F000000000000F83F000000000000304300000000000030C3DC
:40628000CA340000C2340000C2340000BA3400000C3400000C340000B0340000BA3400000C340000B03400000C340000BA3400000E3400000E3400000E3400005435000013
:4062C000E4410000D2400000B8410000BE400000B8410000C2410000B8410000BE400000D2400000D2400000C2410000BE400000C8400000C8400000C84000002A440000D2
:40630000784A0000564A0000564A00004A4A00003E4900003E4900003E4A00004A4A00003E4900003E4A00003E4900004A4A0000424900004249000042490000584C00002E
:406340004300232D302B2000686C4C006566674546470030313233343536373839414243444546003031323334353637383961626364656600000000F8B5C046F8BC08BCBC
:406380009E467047B5020000B50A0000F8B5C046F8BC08BC9E4670478D020000B0630000C80000208800000038020000000000000000000001000000880300200000C05DF1
:4063C00080BB000030000000006CDC020404040001000000000000000000000000000000000000000000000000000000000000000000000040630000000000000000000038
:4064000000000000000000000000000000000000000000000000000000000000000000000000000000000000000000000000000000000000EC000020000000000000000050
:40644000000000000000000000000000000000000000000000000000000000000000000000000000000000000000000000000000000000000000000000000000000000001C
:4064800000000000000000000000000000000000000000000000000000000000000000000000000000000000000000000000000000000000000000000000000000000000DC
:4064C000000000000000000000000000000000000000000000000000000000000000000000000000000000000000000000000000000000000000000000000000000000009C
:40650000000000000000000000000000000000000000000000000000000000000000000000000000000000000000000000000000000000000000000000000000000000005B
:020000040001F9
:0200000490303A
:02000000377156
:0200000490402A
:4000000000000000000000000000000000000000000000000000000000000000000000000000000000000000000000000000000000000000000000000000000000000000C0
:400040000000000000000000000000000000000000000000000000000000000000000000000000000000000000000000000000000000000000000000000000000000000080
:0200000490501A
:0C0000000002112D11A10001114E491247
:0200000490600A
:0100000001FE
:00000001FF